:100000000C9411010C9425010C9425010C942501EC
:100010000C9425010C9425010C9425010C942501C8
:100020000C9425010C9425010C9425010C942501B8
:100030000C9425010C9425010C9425010C942501A8
:100040000C9425010C9425010C9425010C94250198
:100050000C9425010C9425010C9425010C94250188
:100060000C9425010C9425010C9425010C94250178
:100070000C9425010C9425010C9425010C94250168
:100080000C9425010C9425010C9425010C94250158
:100090000C9425010C9425010C9425010C94250148
:1000A0000C9425010C9425010C9425010C94250138
:1000B0000C9425010C9425010C9425010C94250128
:1000C0000C9425010C9425010C9425010C94250118
:1000D0000C9425010C9425010C9425010C94250108
:1000E0000C9425010C9425010C9425010C942501F8
:1000F0000C9425010C9425010C9425010C942501E8
:100100000C9425010C9425010C9425010C942501D7
:100110000C9425010C9425010C9425010C942501C7
:100120000C9425010C9425010C9425010C942501B7
:100130000C9425010C9427010C9425010C942501A5
:100140000C9425010C9425010C9425010C94250197
:100150000C9425010C9425010C9425010C94250187
:100160000C9425010C9425010C9425010C94250177
:100170000C9425010C9425010C9425010C94250167
:100180000C9425010C9425010C9425010C94250157
:100190000C9425010C9425010C9425010C94250147
:1001A0000C9425010C9425010C9425010C94250137
:1001B0000C9425010C9425010C9425010C94250127
:1001C0000C9425010C9425010C9425010C94250117
:1001D0000C9425010C9425010C9425010C945704D2
:1001E0000C947F040C9425010C9425010C9425019A
:1001F0000C9425010C9425010C94250105A84CCDE7
:10020000B2D44EB93836A9020C50B9918688083C50
:10021000A6AAAA2ABE000000803F0C9404030C94F6
:10022000CA0211241FBECFEFCDBFDFE5DEBF00E065
:100230000CBF20E4A0E0B0E201C01D92A53EB207D1
:10024000E1F70E94B1040C9425080C9400001F9261
:100250000F920FB60F9211240BB60F92CF92DF922E
:10026000EF92FF922F933F934F935F936F937F9300
:100270008F939F93AF93BF93EF93FF9381E080930E
:10028000670680910320909104208959994F8093AB
:10029000032090930420FC0184E0F695E7958A956D
:1002A000E1F7EE0FFF1FEF52FF4D60817181CB012F
:1002B000892F992782958F700197880F991F209118
:1002C000012030910220820F931F20E097FF22E04F
:1002D00020930020821B910980930120909302209B
:1002E00090E080E00E9407066B017C012AEC36E278
:1002F0004BE954E40E94F3040E94D80560933A034A
:1003000070933B03A70196016AEC76E28BE994E4D3
:100310000E94F2040E94D805609338037093390359
:10032000FF91EF91BF91AF919F918F917F916F91CD
:100330005F914F913F912F91FF90EF90DF90CF9081
:100340000F900BBE0F900FBE0F901F901895AAEC48
:10035000B1E092E09C93E82FF0E084911C92089524
:10036000CF93DF9383E30E94A701C0E2D3E08887A5
:1003700082E30E94A701898787E30E94A7018A87F9
:1003800086E30E94A7018B8783E4898388E08A83C0
:100390008DE088831B82DF91CF91089581E0809367
:1003A0006106E0E0F9E093E091838083868380ED4D
:1003B0008093800180E293E086A397A308958091C3
:1003C00050008260809350008091510081FFFCCFEB
:1003D00088ED84BF81E080934000089580915000B3
:1003E0008460809350008091510082FFFCCF809107
:1003F0005600897F80935600809156008093560066
:100400008091600081608093600008958091500029
:100410008460809350008091510082FFFCCF8091D6
:1004200056008E7F80935600809156008093560030
:1004300080916800816080936800089580915200E7
:1004400082608093520080915000886080935000B9
:100450008091510083FFFCCF80915600897F80936B
:100460005600809156008260809356008091600013
:100470008160809360000895809152008260809333
:10048000520088ED84BF80915000886080935000B6
:100490008091510083FFFCCF809156008E7F809326
:1004A00056008091560081608093560080916800CC
:1004B00081608093680008958BEC80935200809156
:1004C00050008860809350008091510083FFFCCFE2
:1004D00082EC8093550080915000806180935000A1
:1004E0008091510084FFFCCF88ED84BF84E080932D
:1004F0004000809150008E7F80935000809150008A
:100500008D7F8093500008958BEC809352008091F2
:1005100050008860809350008091510083FFFCCF91
:1005200081EC809355008091500080618093500051
:100530008091510084FFFCCF88ED84BF84E08093DC
:100540004000809150008E7F809350008091500039
:100550008D7F80935000089580916A20909169204A
:10056000891710F0891B08958C59FCCFCF93C09147
:1005700069200E94AC028823E1F3EC2FF0E0EB5FEE
:10058000FF4D8081CF5FC43608F0C0E0C093692082
:10059000CF9108950E94B60290E008952091D02056
:1005A00091E0920F8091CF20943610F09DE9920F48
:1005B000891710F0891B08958C59FCCFCF93DF93D6
:1005C000C82FD1E20E94CE028823D9F08091D0209A
:1005D000E82FF0E0E559FF4DC0838F5F843608F0C7
:1005E00080E09091A200292F2E7F2093A20080937B
:1005F000D02081E28093A30B9093A200DF91CF9152
:100600000895D093A30BDECFCF93DF93D82FCFEFF6
:100610000E94CE02882379F0CC2389F0DA3019F4D5
:100620008DE00E94DE028D2F0E94DE0290E080E0CD
:10063000DF91CF910895CC2311F0C150E9CF81E033
:1006400090E0F6CF8F929F92AF92BF92CF92DF92BF
:10065000EF92FF920F9349015A010E9407066B0126
:100660007C01C501B4010E94070620E030E040E8AB
:1006700051E40E9495069B01AC01C701B6010E949E
:100680005F056B017C01802F002E000C990B07FF8A
:100690002FC091958195910961E070E002C0660FCD
:1006A000771F8A95E2F7072E000C880B990B0E94A2
:1006B00009064B015C0120E030E040E85FE3C70140
:1006C000B6010E94F2049B01AC01C501B4010E9475
:1006D00095060E9402070E94D805CB010F91FF905A
:1006E000EF90DF90CF90BF90AF909F908F90089544
:1006F00061E070E002C0660F771F0A95E2F7072EEF
:10070000000C880B990B0E9409069B01AC01C701E4
:10071000B6010E945F0520E030E040E85FE30E9400
:10072000F204D7CF0C94DE020E94AC02882321F0A1
:100730000E94B60290E0089580E091E00895CF9382
:10074000DF93EC018991811103C0DF91CF9108956E
:100750000E94DE02F7CFCF92DF92EF92FF920F93CB
:100760001F93CF93DF937C016B01C82FDF2D10E027
:1007700000E08091DF409091E0400E94D1078A30F4
:1007800059F08D30A1F400ED17E00E94AC02811108
:1007900016C001501109C9F71882C701DF91CF9126
:1007A0001F910F91FF90EF90DF90CF9008950C155F
:1007B0001D0510F4888321960F5F1F4FDACF8091BB
:1007C000DF409091E0400E94D1078A3029F3609188
:1007D000DF407091E04090E00E940D08DDCF8F92E5
:1007E0009F92AF92BF92CF92DF92EF92FF920F93C0
:1007F000CF936B017C0149015A01C9EF0C2FA50170
:100800009401C701B6010E9422038115904118F09E
:10081000CF5FC83099F70C2FA5019401C701B6012D
:100820000E94220328E12093B20638E03093A50607
:100830003093A10634E03093A2068093A60B9F70FC
:10084000C295C07FC92BC093A70B2093A40B80E255
:100850008093A30B8091A20083608093A20081ED1E
:1008600090E424E033E02093D9403093DA402AEC3E
:1008700032E02093DB403093DC4023E02093D440EF
:100880001092DD401092DE408093DF409093E04074
:100890008093E1409093E240CF910F91FF90EF90D1
:1008A000DF90CF90BF90AF909F908F9008951F9250
:1008B0000F920FB60F9211240BB60F928F939F9346
:1008C000EF93FF9380916A20E82FF0E09091A00BC6
:1008D000EB5FFF4D90838F5F843608F080E090914E
:1008E0006920981380936A20FF91EF919F918F91D7
:1008F0000F900BBE0F900FBE0F901F9018951F9278
:100900000F920FB60F9211240BB60F922F938F9365
:100910009F93EF93FF938091CF209091D0208913E4
:1009200012C080E28093A30B892F8093CF20FF9188
:10093000EF919F918F912F910F900BBE0F900FBE53
:100940000F901F901895E82FF0E0E559FF4D20819A
:100950002093A00B8F5F843608F080E08913E5CFE9
:10096000E0CFC1E0C093A106C09341060E945C02A3
:10097000C093A50601ED10E2D0E0C0E0BE0190E01A
:1009800080E00E9407062BED3FE049EC50E40E9416
:10099000950620E030E040E859E30E9495060E9469
:1009A000260721E437E54EE854E40E9495060E94AC
:1009B00002070E94D105F801619371938F0121967E
:1009C000C115F0E1DF07D1F681E08093A6060E9411
:1009D000CE010E94B0018091A20081608093A200AC
:1009E0007894FFCF5058BB27AA270E940A050C9481
:1009F0005B060E944D0638F00E94540620F039F440
:100A00009F3F19F426F40C944A060EF4E095E7FB98
:100A10000C944406E92F0E946C0658F3BA1762073B
:100A200073078407950720F079F4A6F50C948E06D9
:100A30000EF4E0950B2EBA2FA02D0B01B9019001F9
:100A40000C01CA01A0011124FF27591B99F0593F3D
:100A500050F4503E68F11A16F040A22F232F342F85
:100A60004427585FF3CF469537952795A795F040D3
:100A70005395C9F77EF41F16BA0B620B730B840BE8
:100A8000BAF09150A1F0FF0FBB1F661F771F881FA0
:100A9000C2F70EC0BA0F621F731F841F48F48795F8
:100AA00077956795B795F7959E3F08F0B0CF9395EA
:100AB000880F08F09927EE0F9795879508950E9463
:100AC00073050C945B060E94540658F00E944D0674
:100AD00040F029F45F3F29F00C94440651110C9426
:100AE0008F060C944A060E946C0668F39923B1F3B2
:100AF000552391F3951B550BBB27AA276217730744
:100B0000840738F09F5F5F4F220F331F441FAA1FD7
:100B1000A9F335D00E2E3AF0E0E832D09150504093
:100B2000E695001CCAF72BD0FE2F29D0660F771F41
:100B3000881FBB1F261737074807AB07B0E809F027
:100B4000BB0B802DBF01FF2793585F4F3AF09E3FAC
:100B5000510578F00C9444060C948F065F3FE4F343
:100B6000983ED4F3869577956795B795F7959F5FEF
:100B7000C9F7880F911D9695879597F90895E1E03B
:100B8000660F771F881FBB1F621773078407BA079A
:100B900020F0621B730B840BBA0BEE1F88F7E095F5
:100BA00008950E94D8056894B1110C948F06089599
:100BB0000E94740688F09F5798F0B92F9927B75173
:100BC000B0F0E1F0660F771F881F991F1AF0BA95F1
:100BD000C9F714C0B13091F00E948E06B1E00895BB
:100BE0000C948E06672F782F8827B85F39F0B93FAD
:100BF000CCF3869577956795B395D9F73EF49095A4
:100C00008095709561957F4F8F4F9F4F0895E89421
:100C100009C097FB3EF490958095709561957F4F44
:100C20008F4F9F4F9923A9F0F92F96E9BB279395F2
:100C3000F695879577956795B795F111F8CFFAF402
:100C4000BB0F11F460FF1BC06F5F7F4F8F4F9F4F33
:100C500016C0882311F096E911C0772321F09EE891
:100C6000872F762F05C0662371F096E8862F70E0F7
:100C700060E02AF09A95660F771F881FDAF7880FD1
:100C80009695879597F9089597F99F6780E870E0A2
:100C900060E008959FEF80EC089500240A941616F2
:100CA000170618060906089500240A94121613065A
:100CB000140605060895092E0394000C11F48823E8
:100CC00052F0BB0F40F4BF2B11F460FF04C06F5F04
:100CD0007F4F8F4F9F4F089557FD9058440F551FDA
:100CE00059F05F3F71F04795880F97FB991F61F0AE
:100CF0009F3F79F087950895121613061406551F25
:100D0000F2CF4695F1DF08C0161617061806991F90
:100D1000F1CF86957105610508940895E894BB2785
:100D200066277727CB0197F908950E94A8060C94AF
:100D30005B060E944D0638F00E94540620F0952371
:100D400011F00C9444060C944A0611240C948F065E
:100D50000E946C0670F3959FC1F3950F50E0551FEC
:100D6000629FF001729FBB27F00DB11D639FAA2700
:100D7000F00DB11DAA1F649F6627B00DA11D661F4F
:100D8000829F2227B00DA11D621F739FB00DA11D70
:100D9000621F839FA00D611D221F749F3327A00D2A
:100DA000611D231F849F600D211D822F762F6A2FC6
:100DB00011249F5750409AF0F1F088234AF0EE0F2B
:100DC000FF1FBB1F661F771F881F91505040A9F758
:100DD0009E3F510580F00C9444060C948F065F3FB3
:100DE000E4F3983ED4F3869577956795B795F79594
:100DF000E7959F5FC1F7FE2B880F911D969587950C
:100E000097F908950E947406E8F09E37E8F0963945
:100E1000B8F49E3848F4672F782F8827985FF9CF69
:100E200086957795679593959539D0F3B62FB170E0
:100E30006B0F711D811D20F48795779567959395AC
:100E40000C942E070C9449070C948F069F930E94D4
:100E500059070F9007FCEE5F0C948207882371F40A
:100E6000772321F09850872B762F07C0662311F443
:100E700099270DC09051862B70E060E02AF09A957A
:100E8000660F771F881FDAF7880F9695879597F971
:100E900008959F3F31F0915020F48795779567959D
:100EA000B795880F911D9695879597F908950C949D
:100EB0004A060E947406D8F3E894E0E0BB279F57E7
:100EC000F0F02AED3FE049EC06C0EE0FBB0F661FC5
:100ED000771F881F28F0B23A62077307840728F04B
:100EE000B25A620B730B840BE3959A9572F78038B4
:100EF00030F49A95BB0F661F771F881FD2F7904872
:100F00000C944B07EF93E0FF07C0A2EA2AED3FE005
:100F100049EC5FEB0E940A050E945B060F90039468
:100F200001FC9058ECEFF1E00C9496079F938F939F
:100F30007F936F93FF93EF939B01AC010E94950603
:100F4000EF91FF910E94AA072F913F914F915F91DE
:100F50000C949506DF93CF931F930F93FF92EF921C
:100F6000DF927B018C01689406C0DA2EEF010E94AB
:100F7000A806FE01E894A5912591359145915591DA
:100F8000A6F3EF010E940A05FE019701A801DA9479
:100F900069F7DF90EF90FF900F911F91CF91DF9154
:100FA0000895CF93DF93EC012B8120FF1AC026FF19
:100FB0000CC02F7B2B838E819F8101968E839F8314
:100FC0008A8190E0DF91CF91089522FF18C0E881D7
:100FD000F9818081082E000C990B009729F420627A
:100FE0002B838FEF9FEFEECF3196E883F9832E812D
:100FF0003F812F5F3F4F2E833F839927E3CFEA85C1
:10100000FB85199597FFF3CF2B81019621F080E2A4
:10101000822B8B83E6CF80E1FBCFFB01238120FF76
:1010200011C026FD0FC08F3F980771F082832F7D7E
:101030002064238326813781215031092683378319
:0E104000992708958FEF9FEF0895F894FFCF42
:00000001FF
